{
  "contractName": "Crowdfunding",
  "abi": [
    {
      "inputs": [
        {
          "internalType": "uint256",
          "name": "_goalAmount",
          "type": "uint256"
        },
        {
          "internalType": "uint256",
          "name": "_durationInDays",
          "type": "uint256"
        }
      ],
      "stateMutability": "nonpayable",
      "type": "constructor"
    },
    {
      "anonymous": false,
      "inputs": [
        {
          "indexed": false,
          "internalType": "address",
          "name": "contributor",
          "type": "address"
        },
        {
          "indexed": false,
          "internalType": "uint256",
          "name": "amount",
          "type": "uint256"
        }
      ],
      "name": "ContributionReceived",
      "type": "event"
    },
    {
      "anonymous": false,
      "inputs": [],
      "name": "GoalReached",
      "type": "event"
    },
    {
      "inputs": [
        {
          "internalType": "address",
          "name": "",
          "type": "address"
        }
      ],
      "name": "contributions",
      "outputs": [
        {
          "internalType": "uint256",
          "name": "",
          "type": "uint256"
        }
      ],
      "stateMutability": "view",
      "type": "function",
      "constant": true
    },
    {
      "inputs": [],
      "name": "deadline",
      "outputs": [
        {
          "internalType": "uint256",
          "name": "",
          "type": "uint256"
        }
      ],
      "stateMutability": "view",
      "type": "function",
      "constant": true
    },
    {
      "inputs": [],
      "name": "goalAmount",
      "outputs": [
        {
          "internalType": "uint256",
          "name": "",
          "type": "uint256"
        }
      ],
      "stateMutability": "view",
      "type": "function",
      "constant": true
    },
    {
      "inputs": [],
      "name": "owner",
      "outputs": [
        {
          "internalType": "address",
          "name": "",
          "type": "address"
        }
      ],
      "stateMutability": "view",
      "type": "function",
      "constant": true
    },
    {
      "inputs": [],
      "name": "totalContributed",
      "outputs": [
        {
          "internalType": "uint256",
          "name": "",
          "type": "uint256"
        }
      ],
      "stateMutability": "view",
      "type": "function",
      "constant": true
    },
    {
      "inputs": [],
      "name": "contribute",
      "outputs": [],
      "stateMutability": "payable",
      "type": "function",
      "payable": true
    },
    {
      "inputs": [],
      "name": "withdraw",
      "outputs": [],
      "stateMutability": "nonpayable",
      "type": "function"
    },
    {
      "inputs": [],
      "name": "refund",
      "outputs": [],
      "stateMutability": "nonpayable",
      "type": "function"
    }
  ],
  "bytecode": "0x60806040523480156200001157600080fd5b5060405162000de738038062000de78339818101604052810190620000379190620000c1565b336000806101000a81548173ffffffffffffffffffffffffffffffffffffffff021916908373ffffffffffffffffffffffffffffffffffffffff1602179055508160018190555062015180816200008f91906200015f565b426200009c919062000102565b600281905550505062000213565b600081519050620000bb81620001f9565b92915050565b60008060408385031215620000d557600080fd5b6000620000e585828601620000aa565b9250506020620000f885828601620000aa565b9150509250929050565b60006200010f82620001c0565b91506200011c83620001c0565b9250827fffffffffffffffffffffffffffffffffffffffffffffffffffffffffffffffff03821115620001545762000153620001ca565b5b828201905092915050565b60006200016c82620001c0565b91506200017983620001c0565b9250817fffffffffffffffffffffffffffffffffffffffffffffffffffffffffffffffff0483118215151615620001b557620001b4620001ca565b5b828202905092915050565b6000819050919050565b7f4e487b7100000000000000000000000000000000000000000000000000000000600052601160045260246000fd5b6200020481620001c0565b81146200021057600080fd5b50565b610bc480620002236000396000f3fe60806040526004361061007b5760003560e01c806342e94c901161004e57806342e94c9014610118578063590e1ae3146101555780638da5cb5b1461016c578063d7bb99ba146101975761007b565b8063023f4147146100805780632636b945146100ab57806329dcb0cf146100d65780633ccfd60b14610101575b600080fd5b34801561008c57600080fd5b506100956101a1565b6040516100a29190610a8a565b60405180910390f35b3480156100b757600080fd5b506100c06101a7565b6040516100cd9190610a8a565b60405180910390f35b3480156100e257600080fd5b506100eb6101ad565b6040516100f89190610a8a565b60405180910390f35b34801561010d57600080fd5b506101166101b3565b005b34801561012457600080fd5b5061013f600480360381019061013a91906106d9565b610338565b60405161014c9190610a8a565b60405180910390f35b34801561016157600080fd5b5061016a610350565b005b34801561017857600080fd5b506101816104f1565b60405161018e9190610946565b60405180910390f35b61019f610515565b005b60035481565b60015481565b60025481565b60008054906101000a900473ffffffffffffffffffffffffffffffffffffffff1673ffffffffffffffffffffffffffffffffffffffff163373ffffffffffffffffffffffffffffffffffffffff1614610241576040517f08c379a0000000000000000000000000000000000000000000000000000000008152600401610238906109ca565b60405180910390fd5b6001546003541015610288576040517f08c379a000000000000000000000000000000000000000000000000000000000815260040161027f90610a4a565b60405180910390fd5b6002544210156102cd576040517f08c379a00000000000000000000000000000000000000000000000000000000081526004016102c4906109ea565b60405180910390fd5b60008054906101000a900473ffffffffffffffffffffffffffffffffffffffff1673ffffffffffffffffffffffffffffffffffffffff166108fc6003549081150290604051600060405180830381858888f19350505050158015610335573d6000803e3d6000fd5b50565b60046020528060005260406000206000915090505481565b600254421015610395576040517f08c379a000000000000000000000000000000000000000000000000000000000815260040161038c906109ea565b60405180910390fd5b600154600354106103db576040517f08c379a00000000000000000000000000000000000000000000000000000000081526004016103d290610a6a565b60405180910390fd5b6000600460003373ffffffffffffffffffffffffffffffffffffffff1673ffffffffffffffffffffffffffffffffffffffff16815260200190815260200160002054905060008111610462576040517f08c379a00000000000000000000000000000000000000000000000000000000081526004016104599061098a565b60405180910390fd5b6000600460003373ffffffffffffffffffffffffffffffffffffffff1673ffffffffffffffffffffffffffffffffffffffff168152602001908152602001600020819055503373ffffffffffffffffffffffffffffffffffffffff166108fc829081150290604051600060405180830381858888f193505050501580156104ed573d6000803e3d6000fd5b5050565b60008054906101000a900473ffffffffffffffffffffffffffffffffffffffff1681565b6002544210610559576040517f08c379a000000000000000000000000000000000000000000000000000000000815260040161055090610a0a565b60405180910390fd5b6001546003541061059f576040517f08c379a0000000000000000000000000000000000000000000000000000000008152600401610596906109aa565b60405180910390fd5b600034116105e2576040517f08c379a00000000000000000000000000000000000000000000000000000000081526004016105d990610a2a565b60405180910390fd5b34600460003373ffffffffffffffffffffffffffffffffffffffff1673ffffffffffffffffffffffffffffffffffffffff16815260200190815260200160002060008282546106319190610ab6565b92505081905550346003600082825461064a9190610ab6565b925050819055507f1bb460ccaaf70fbacfec17a376f8acbd278c1405590ffcc8ebe4b88daf4f64ad3334604051610682929190610961565b60405180910390a1600154600354106106c2577ff30bb8af8a065d12f4e39fe65ccc82ca742ae3efb1f64e78630fe4796d92c5fe60405160405180910390a15b565b6000813590506106d381610b77565b92915050565b6000602082840312156106eb57600080fd5b60006106f9848285016106c4565b91505092915050565b61070b81610b0c565b82525050565b600061071e601a83610aa5565b91507f4e6f20636f6e747269627574696f6e7320746f20726566756e640000000000006000830152602082019050919050565b600061075e601483610aa5565b91507f476f616c20616c726561647920726561636865640000000000000000000000006000830152602082019050919050565b600061079e601783610aa5565b91507f4f6e6c79206f776e65722063616e2077697468647261770000000000000000006000830152602082019050919050565b60006107de601a83610aa5565b91507f43726f776466756e64696e67206e6f742079657420656e6465640000000000006000830152602082019050919050565b600061081e601683610aa5565b91507f43726f776466756e64696e672068617320656e646564000000000000000000006000830152602082019050919050565b600061085e602683610aa5565b91507f436f6e747269627574696f6e206d75737420626520677265617465722074686160008301527f6e207a65726f00000000000000000000000000000000000000000000000000006020830152604082019050919050565b60006108c4601083610aa5565b91507f476f616c206e6f742072656163686564000000000000000000000000000000006000830152602082019050919050565b6000610904601c83610aa5565b91507f476f616c2077617320726561636865642c206e6f20726566756e6473000000006000830152602082019050919050565b61094081610b3e565b82525050565b600060208201905061095b6000830184610702565b92915050565b60006040820190506109766000830185610702565b6109836020830184610937565b9392505050565b600060208201905081810360008301526109a381610711565b9050919050565b600060208201905081810360008301526109c381610751565b9050919050565b600060208201905081810360008301526109e381610791565b9050919050565b60006020820190508181036000830152610a03816107d1565b9050919050565b60006020820190508181036000830152610a2381610811565b9050919050565b60006020820190508181036000830152610a4381610851565b9050919050565b60006020820190508181036000830152610a63816108b7565b9050919050565b60006020820190508181036000830152610a83816108f7565b9050919050565b6000602082019050610a9f6000830184610937565b92915050565b600082825260208201905092915050565b6000610ac182610b3e565b9150610acc83610b3e565b9250827fffffffffffffffffffffffffffffffffffffffffffffffffffffffffffffffff03821115610b0157610b00610b48565b5b828201905092915050565b6000610b1782610b1e565b9050919050565b600073ffffffffffffffffffffffffffffffffffffffff82169050919050565b6000819050919050565b7f4e487b7100000000000000000000000000000000000000000000000000000000600052601160045260246000fd5b610b8081610b0c565b8114610b8b57600080fd5b5056fea2646970667358221220b1196ae4fd0eb0444b94a359cd74295136bbd45608898ebd239b4c5e58053c8f64736f6c63430008000033",
  "immutableReferences": {},
  "source": "// SPDX-License-Identifier: MIT\npragma solidity ^0.8.0;\n\ncontract Crowdfunding {\n    address public owner;\n    uint public goalAmount;\n    uint public deadline;\n    uint public totalContributed;\n\n    mapping(address => uint) public contributions;\n\n    event ContributionReceived(address contributor, uint amount);\n    event GoalReached();\n \n    constructor(uint _goalAmount, uint _durationInDays) {\n        owner = msg.sender;\n        goalAmount = _goalAmount;\n        deadline = block.timestamp + (_durationInDays * 1 days);\n    }\n\n    function contribute() public payable {\n        require(block.timestamp < deadline, \"Crowdfunding has ended\");\n        require(totalContributed < goalAmount, \"Goal already reached\");\n        require(msg.value > 0, \"Contribution must be greater than zero\");\n\n        contributions[msg.sender] += msg.value;\n        totalContributed += msg.value;\n\n        emit ContributionReceived(msg.sender, msg.value);\n\n        if (totalContributed >= goalAmount) {\n            emit GoalReached();\n        }\n    }\n\n    function withdraw() public {\n        require(msg.sender == owner, \"Only owner can withdraw\");\n        require(totalContributed >= goalAmount, \"Goal not reached\");\n        require(block.timestamp >= deadline, \"Crowdfunding not yet ended\");\n\n        payable(owner).transfer(totalContributed);\n    }\n\n    function refund() public {\n        require(block.timestamp >= deadline, \"Crowdfunding not yet ended\");\n        require(totalContributed < goalAmount, \"Goal was reached, no refunds\");\n\n        uint contributedAmount = contributions[msg.sender];\n        require(contributedAmount > 0, \"No contributions to refund\");\n\n        contributions[msg.sender] = 0;\n        payable(msg.sender).transfer(contributedAmount);\n    }\n}\n",
  "sourcePath": "C:\\Users\\hritish\\Desktop\\tanishaa\\assigments-sem7\\blockchain\\smart_contractor\\my-crowdfunding-project\\contracts\\Crowdfunding.sol",
  "compiler": {
    "name": "solc",
    "version": "0.8.0+commit.c7dfd78e.Emscripten.clang"
  },
  "schemaVersion": "3.4.16",
  "updatedAt": "2024-11-11T13:25:32.287Z",
  "networkType": "ethereum",
  "devdoc": {
    "kind": "dev",
    "methods": {},
    "version": 1
  },
  "userdoc": {
    "kind": "user",
    "methods": {},
    "version": 1
  }
}